:100000000AC019C018C017C016C015C014C013C04C
:1000100012C011C010C011271FBFCFE5D0E0DEBF56
:10002000CDBF20E0A0E4B0E001C01D93A334B2072F
:10003000E1F76ED097C0E4CF41E042A91BBBEE9A36
:10004000EE99FECF41A141130EC049B34A3020F4CE
:1000500041E041A912A926C049B3453118F143E056
:1000600041A912A91FC0413071F449B34C3010F4BA
:1000700012A918C049B3453110F411A913C042E0C8
:1000800041A912A90FC0423069F449B3433110F0BD
:1000900012A908C049B34A3010F011A903C041E0C9
:1000A00041A912A941E04BBBEE9AEE99FECF40A1C7
:1000B00041130EC049B34A3020F441E040A912A9CF
:1000C000089549B3453118F143E040A912A90895B4
:1000D000413071F449B34C3010F412A9089549B37A
:1000E000453110F410A9089542E040A912A90895DD
:1000F000423069F449B3433110F012A9089549B36D
:100100004A3010F010A9089541E040A912A90895BD
:1001100044E041B912B943E047BB8EDF42A1413010
:10012000B9F440EA50E064E062B98FE295E78150AB
:100130009040E9F700C0000012B981EE94E08150D0
:100140009040E9F700C000004150510B69F7E5CF3E
:100150009FE744E85EE1915040405040E1F700C025
:080160000000DBCFF894FFCF93
:00000001FF
