S0150000416C6B616C696E6552657573652E73726563EA
S11300000AC019C018C017C016C015C014C013C048
S113001012C011C010C011271FBFCFE5D0E0DEBF52
S1130020CDBF20E0A0E4B0E001C01D93A334B2072B
S1130030E1F76ED099C0E4CF41E042A91BBBEE9A30
S1130040EE99FECF41A141130EC049B3473420F4C9
S113005041E041A912A926C049B3433618F143E04F
S113006041A912A91FC0413071F449B3493410F4B5
S113007012A918C049B3433610F411A913C042E0C1
S113008041A912A90FC0423069F449B3413610F0B6
S113009012A908C049B3473410F011A903C041E0C4
S11300A041A912A941E04BBBEE9AEE99FECF40A1C3
S11300B041130EC049B3433420F441E040A912A9CE
S11300C0089549B3433A18F143E040A912A90895A9
S11300D0413071F449B3453410F412A9089549B379
S11300E0433A10F410A9089542E040A912A90895D2
S11300F0423069F449B3413A10F012A9089549B362
S1130100433410F010A9089541E040A912A90895BC
S113011044E041B912B943E047BB43E84DBB8CDF2F
S113012042A14130B9F440EA50E064E062B983EDA1
S113013090E381509040E9F700C0000012B98FE2CB
S113014095E781509040E9F700C000004150510B01
S113015069F7E5CF9FE744E85EE1915040405040A5
S10F0160E1F700C00000DBCFF894FFCFF3
S9030000FC
